{
  "_format": "hh-sol-artifact-1",
  "contractName": "EchoDAO",
  "sourceName": "contracts/EchoDAO.sol",
  "abi": [
    {
      "inputs": [
        {
          "internalType": "address",
          "name": "_treasury",
          "type": "address"
        }
      ],
      "stateMutability": "nonpayable",
      "type": "constructor"
    },
    {
      "inputs": [
        {
          "internalType": "address",
          "name": "owner",
          "type": "address"
        }
      ],
      "name": "OwnableInvalidOwner",
      "type": "error"
    },
    {
      "inputs": [
        {
          "internalType": "address",
          "name": "account",
          "type": "address"
        }
      ],
      "name": "OwnableUnauthorizedAccount",
      "type": "error"
    },
    {
      "anonymous": false,
      "inputs": [
        {
          "indexed": true,
          "internalType": "address",
          "name": "previousOwner",
          "type": "address"
        },
        {
          "indexed": true,
          "internalType": "address",
          "name": "newOwner",
          "type": "address"
        }
      ],
      "name": "OwnershipTransferred",
      "type": "event"
    },
    {
      "anonymous": false,
      "inputs": [
        {
          "indexed": false,
          "internalType": "uint256",
          "name": "id",
          "type": "uint256"
        },
        {
          "indexed": false,
          "internalType": "address",
          "name": "proposer",
          "type": "address"
        },
        {
          "indexed": false,
          "internalType": "uint256",
          "name": "blockStart",
          "type": "uint256"
        },
        {
          "indexed": false,
          "internalType": "uint256",
          "name": "blockEnd",
          "type": "uint256"
        },
        {
          "indexed": false,
          "internalType": "string",
          "name": "description",
          "type": "string"
        }
      ],
      "name": "ProposalCreated",
      "type": "event"
    },
    {
      "anonymous": false,
      "inputs": [
        {
          "indexed": false,
          "internalType": "uint256",
          "name": "id",
          "type": "uint256"
        }
      ],
      "name": "ProposalExecuted",
      "type": "event"
    },
    {
      "anonymous": false,
      "inputs": [
        {
          "indexed": false,
          "internalType": "uint256",
          "name": "id",
          "type": "uint256"
        },
        {
          "indexed": false,
          "internalType": "address",
          "name": "voter",
          "type": "address"
        },
        {
          "indexed": false,
          "internalType": "bool",
          "name": "support",
          "type": "bool"
        }
      ],
      "name": "Voted",
      "type": "event"
    },
    {
      "inputs": [],
      "name": "QUORUM_PERCENTAGE",
      "outputs": [
        {
          "internalType": "uint256",
          "name": "",
          "type": "uint256"
        }
      ],
      "stateMutability": "view",
      "type": "function"
    },
    {
      "inputs": [],
      "name": "VOTING_PERIOD_BLOCKS",
      "outputs": [
        {
          "internalType": "uint256",
          "name": "",
          "type": "uint256"
        }
      ],
      "stateMutability": "view",
      "type": "function"
    },
    {
      "inputs": [
        {
          "internalType": "address",
          "name": "_target",
          "type": "address"
        },
        {
          "internalType": "uint256",
          "name": "_value",
          "type": "uint256"
        },
        {
          "internalType": "bytes",
          "name": "_callData",
          "type": "bytes"
        },
        {
          "internalType": "string",
          "name": "_description",
          "type": "string"
        }
      ],
      "name": "createProposal",
      "outputs": [
        {
          "internalType": "uint256",
          "name": "",
          "type": "uint256"
        }
      ],
      "stateMutability": "nonpayable",
      "type": "function"
    },
    {
      "inputs": [
        {
          "internalType": "uint256",
          "name": "_proposalId",
          "type": "uint256"
        }
      ],
      "name": "executeProposal",
      "outputs": [],
      "stateMutability": "nonpayable",
      "type": "function"
    },
    {
      "inputs": [
        {
          "internalType": "uint256",
          "name": "",
          "type": "uint256"
        },
        {
          "internalType": "address",
          "name": "",
          "type": "address"
        }
      ],
      "name": "hasVoted",
      "outputs": [
        {
          "internalType": "bool",
          "name": "",
          "type": "bool"
        }
      ],
      "stateMutability": "view",
      "type": "function"
    },
    {
      "inputs": [],
      "name": "nextProposalId",
      "outputs": [
        {
          "internalType": "uint256",
          "name": "",
          "type": "uint256"
        }
      ],
      "stateMutability": "view",
      "type": "function"
    },
    {
      "inputs": [],
      "name": "owner",
      "outputs": [
        {
          "internalType": "address",
          "name": "",
          "type": "address"
        }
      ],
      "stateMutability": "view",
      "type": "function"
    },
    {
      "inputs": [
        {
          "internalType": "uint256",
          "name": "",
          "type": "uint256"
        }
      ],
      "name": "proposals",
      "outputs": [
        {
          "internalType": "address",
          "name": "target",
          "type": "address"
        },
        {
          "internalType": "uint256",
          "name": "value",
          "type": "uint256"
        },
        {
          "internalType": "bytes",
          "name": "callData",
          "type": "bytes"
        },
        {
          "internalType": "string",
          "name": "description",
          "type": "string"
        },
        {
          "internalType": "uint256",
          "name": "blockStart",
          "type": "uint256"
        },
        {
          "internalType": "uint256",
          "name": "blockEnd",
          "type": "uint256"
        },
        {
          "internalType": "uint256",
          "name": "yesVotes",
          "type": "uint256"
        },
        {
          "internalType": "uint256",
          "name": "noVotes",
          "type": "uint256"
        },
        {
          "internalType": "bool",
          "name": "executed",
          "type": "bool"
        }
      ],
      "stateMutability": "view",
      "type": "function"
    },
    {
      "inputs": [],
      "name": "renounceOwnership",
      "outputs": [],
      "stateMutability": "nonpayable",
      "type": "function"
    },
    {
      "inputs": [
        {
          "internalType": "address",
          "name": "newOwner",
          "type": "address"
        }
      ],
      "name": "transferOwnership",
      "outputs": [],
      "stateMutability": "nonpayable",
      "type": "function"
    },
    {
      "inputs": [],
      "name": "treasury",
      "outputs": [
        {
          "internalType": "contract Treasury",
          "name": "",
          "type": "address"
        }
      ],
      "stateMutability": "view",
      "type": "function"
    },
    {
      "inputs": [
        {
          "internalType": "uint256",
          "name": "_proposalId",
          "type": "uint256"
        },
        {
          "internalType": "bool",
          "name": "_support",
          "type": "bool"
        }
      ],
      "name": "vote",
      "outputs": [],
      "stateMutability": "nonpayable",
      "type": "function"
    }
  ],
  "bytecode": "0x60a06040526001805534801561001457600080fd5b50604051610fdc380380610fdc833981016040819052610033916100c4565b338061005957604051631e4fbdf760e01b81526000600482015260240160405180910390fd5b61006281610074565b506001600160a01b03166080526100f4565b600080546001600160a01b038381166001600160a01b0319831681178455604051919092169283917f8be0079c531659141344cd1fd0a4f28419497f9722a3daafe3b4186f6b6457e09190a35050565b6000602082840312156100d657600080fd5b81516001600160a01b03811681146100ed57600080fd5b9392505050565b608051610ecd61010f60003960006101590152610ecd6000f3fe608060405234801561001057600080fd5b50600436106100b45760003560e01c80638da5cb5b116100715780638da5cb5b1461019b578063a29dfff3146101ac578063c1f5617c146101b5578063c9d27afe146101c8578063ee8a7c15146101db578063f2fde38b146101e357600080fd5b8063013cf08b146100b95780630d61b519146100ea5780632ab09d14146100ff578063438596321461011657806361d027b314610154578063715018a614610193575b600080fd5b6100cc6100c73660046109e6565b6101f6565b6040516100e199989796959493929190610a45565b60405180910390f35b6100fd6100f83660046109e6565b61035d565b005b61010860015481565b6040519081526020016100e1565b610144610124366004610ad1565b600360209081526000928352604080842090915290825290205460ff1681565b60405190151581526020016100e1565b61017b7f000000000000000000000000000000000000000000000000000000000000000081565b6040516001600160a01b0390911681526020016100e1565b6100fd61055a565b6000546001600160a01b031661017b565b6101086103e881565b6101086101c3366004610b46565b61056e565b6100fd6101d6366004610bd0565b610743565b610108600481565b6100fd6101f1366004610c05565b61092b565b60026020819052600091825260409091208054600182015492820180546001600160a01b0390921693929161022a90610c27565b80601f016020809104026020016040519081016040528092919081815260200182805461025690610c27565b80156102a35780601f10610278576101008083540402835291602001916102a3565b820191906000526020600020905b81548152906001019060200180831161028657829003601f168201915b5050505050908060030180546102b890610c27565b80601f01602080910402602001604051908101604052809291908181526020018280546102e490610c27565b80156103315780601f1061030657610100808354040283529160200191610331565b820191906000526020600020905b81548152906001019060200180831161031457829003601f168201915b505050600484015460058501546006860154600787015460089097015495969295919450925060ff1689565b6000818152600260205260409020600581015443116103b65760405162461bcd60e51b815260206004820152601060248201526f159bdd1a5b99c81b9bdd08195b99195960821b60448201526064015b60405180910390fd5b600881015460ff16156103fe5760405162461bcd60e51b815260206004820152601060248201526f105b1c9958591e48195e1958dd5d195960821b60448201526064016103ad565b80600701548160060154116104645760405162461bcd60e51b815260206004820152602660248201527f50726f706f73616c20646964206e6f742070617373206f722071756f72756d2060448201526519985a5b195960d21b60648201526084016103ad565b60088101805460ff191660019081179091558154908201546040516000926001600160a01b0316919061049b906002860190610c61565b60006040518083038185875af1925050503d80600081146104d8576040519150601f19603f3d011682016040523d82523d6000602084013e6104dd565b606091505b50509050806105215760405162461bcd60e51b815260206004820152601060248201526f115e1958dd5d1a5bdb8819985a5b195960821b60448201526064016103ad565b6040518381527f712ae1383f79ac853f8d882153778e0260ef8f03b504e2866e0593e04d2b291f906020015b60405180910390a1505050565b610562610969565b61056c6000610996565b565b60015460408051610120810182526001600160a01b038916815260208082018990528251601f88018290048202810182018452878152600094938301918990899081908401838280828437600092019190915250505090825250604080516020601f880181900481028201810190925286815291810191908790879081908401838280828437600092019190915250505090825250436020820181905260409091019061061e906103e890610ced565b81526000602080830182905260408084018390526060909301829052848252600280825291839020845181546001600160a01b0319166001600160a01b03909116178155908401516001820155918301519082019061067d9082610d6b565b50606082015160038201906106929082610d6b565b506080820151600482015560a0820151600582015560c0820151600682015560e08201516007820155610100909101516008909101805460ff1916911515919091179055600180549060006106e683610e2b565b909155507fa00fcf4f5e03cc2f4818b8f380a8f2a06479e49bf0765e5fec09aebdaf922bbc905081334361071c6103e882610ced565b888860405161073096959493929190610e44565b60405180910390a1979650505050505050565b600082815260026020526040902060048101546107a25760405162461bcd60e51b815260206004820152601760248201527f50726f706f73616c20646f6573206e6f7420657869737400000000000000000060448201526064016103ad565b80600401544310156107eb5760405162461bcd60e51b8152602060048201526012602482015271159bdd1a5b99c81b9bdd081cdd185c9d195960721b60448201526064016103ad565b80600501544311156108325760405162461bcd60e51b815260206004820152601060248201526f159bdd1a5b99c81a185cc8195b99195960821b60448201526064016103ad565b600083815260036020908152604080832033845290915290205460ff161561088c5760405162461bcd60e51b815260206004820152600d60248201526c105b1c9958591e481d9bdd1959609a1b60448201526064016103ad565b60008381526003602090815260408083203384529091529020805460ff1916600117905581156108d2576006810180549060006108c883610e2b565b91905055506108ea565b6007810180549060006108e483610e2b565b91905055505b60408051848152336020820152831515918101919091527ff2913dbe661ee2acc4a046d8fbcdc792373bda34c41c6086484b5345e5785e5f9060600161054d565b610933610969565b6001600160a01b03811661095d57604051631e4fbdf760e01b8152600060048201526024016103ad565b61096681610996565b50565b6000546001600160a01b0316331461056c5760405163118cdaa760e01b81523360048201526024016103ad565b600080546001600160a01b038381166001600160a01b0319831681178455604051919092169283917f8be0079c531659141344cd1fd0a4f28419497f9722a3daafe3b4186f6b6457e09190a35050565b6000602082840312156109f857600080fd5b5035919050565b6000815180845260005b81811015610a2557602081850181015186830182015201610a09565b506000602082860101526020601f19601f83011685010191505092915050565b6001600160a01b038a1681526020810189905261012060408201819052600090610a718382018b6109ff565b90508281036060840152610a85818a6109ff565b6080840198909852505060a081019490945260c084019290925260e0830152151561010090910152949350505050565b80356001600160a01b0381168114610acc57600080fd5b919050565b60008060408385031215610ae457600080fd5b82359150610af460208401610ab5565b90509250929050565b60008083601f840112610b0f57600080fd5b50813567ffffffffffffffff811115610b2757600080fd5b602083019150836020828501011115610b3f57600080fd5b9250929050565b60008060008060008060808789031215610b5f57600080fd5b610b6887610ab5565b955060208701359450604087013567ffffffffffffffff80821115610b8c57600080fd5b610b988a838b01610afd565b90965094506060890135915080821115610bb157600080fd5b50610bbe89828a01610afd565b979a9699509497509295939492505050565b60008060408385031215610be357600080fd5b8235915060208301358015158114610bfa57600080fd5b809150509250929050565b600060208284031215610c1757600080fd5b610c2082610ab5565b9392505050565b600181811c90821680610c3b57607f821691505b602082108103610c5b57634e487b7160e01b600052602260045260246000fd5b50919050565b6000808354610c6f81610c27565b60018281168015610c875760018114610c9c57610ccb565b60ff1984168752821515830287019450610ccb565b8760005260208060002060005b85811015610cc25781548a820152908401908201610ca9565b50505082870194505b50929695505050505050565b634e487b7160e01b600052601160045260246000fd5b80820180821115610d0057610d00610cd7565b92915050565b634e487b7160e01b600052604160045260246000fd5b601f821115610d6657600081815260208120601f850160051c81016020861015610d435750805b601f850160051c820191505b81811015610d6257828155600101610d4f565b5050505b505050565b815167ffffffffffffffff811115610d8557610d85610d06565b610d9981610d938454610c27565b84610d1c565b602080601f831160018114610dce5760008415610db65750858301515b600019600386901b1c1916600185901b178555610d62565b600085815260208120601f198616915b82811015610dfd57888601518255948401946001909101908401610dde565b5085821015610e1b5787850151600019600388901b60f8161c191681555b5050505050600190811b01905550565b600060018201610e3d57610e3d610cd7565b5060010190565b86815260018060a01b038616602082015284604082015283606082015260a060808201528160a0820152818360c0830137600081830160c090810191909152601f909201601f191601019594505050505056fea264697066735822122079b7308aba4374693187abc2506df3cdcb4becb57b12f40d6b4dd3b3f2f917a964736f6c63430008140033",
  "linkReferences": {},
  "deployedLinkReferences": {}
}